S01100006D616D655F434D33332E737265631E
S3150000000000040020911300001D120000A11300003F
S31500000010A1130000A1130000A1130000A11300000A
S31500000020000000000000000000000000A113000016
S31500000030A113000000000000A1130000A11300009E
S31500000040D0B502AF48F20050C4F21100817844F2F4
S31500000050040C01F0DF0181708178C4F2080C01F014
S31500000060EF018170DCF8002040F2A20E42F08062BF
S31500000070CCF8002040F60352C4F208021378C4F20A
S31500000080080E03F07F0313701378052443F0400332
S315000000901370BEF8001041F00201AEF8001040F6F1
S315000000A04411C4F208010B6823F480330B600B681B
S315000000B064F31C630B600B6843F480330B60BEF87B
S315000000C0003023F00403AEF800304B6823F480338D
S315000000D04B604B6864F31C634B604B6843F480339E
S315000000E04B60117801F0BF011170117841F0800169
S315000000F01170DCF8001021F08061CCF800100021AE
S315000001000170027802F0FC0201320270027802F0FD
S31500000110F7020270027802F0DF020270027802F043
S31500000120BF020270F2228271C171C17901F0EF0142
S31500000130C171C17901F0BF01C1715121417081784E
S3150000014041F020018170817841F010018170D0BDAD
S31500000150F0B503AF4DF804BD40F60350C4F20800F5
S31500000160017840F6001401F07F0101700178C4F2B5
S31500000170080441F0400101700021216022684FF21D
S31500000180807642F0040222602268092542F00102CC
S31500000190226040F60412C4F2080211601168CFF61C
S315000001A0FF7641F004011160116841F00101116010
S315000001B0017801F0BF010170017841F08001017002
S315000001C0A05B4FF47A7120F00100A053022000F0EA
S315000001D0DFFFA05B4FF47A7140F00100A0530220CC
S315000001E000F0D6FF013DEBD10A204FF47A715DF89D
S315000001F004BBBDE8F04000F0CBBFD4D4F0B503AFEC
S315000002002DE9000B4FF201051C469146884606462D
S31500000210C4F20905184600BF95F90010B1F1FF3F79
S315000002200EDC0138F8D128784FF47A7140F00800D6
S3150000023028700A2000F0ACFF95F90000002822D4AF
S31500000240287840F002002870204600BF95F9081073
S31500000250002906D40138F9D14FF0FF30BDE8000B74
S31500000260F0BD70006874204695F90810B1F1FF3FA3
S315000002700EDD297AC90624D40138F5D16FF00200C3
S31500000280BDE8000BF0BD6FF06300BDE8000BF0BDEC
S31500000290B9F1000F18D0002218F802006874204641
S315000002A095F90810002905D4297AC9060FD4013812
S315000002B0F6D120E0013200214A454FF00200EBD191
S315000002C00CE06FF0010104E00021022006E06FF06F
S315000002D00301287A00F0EF00287205202A780C46E0
S315000002E042F008024FF47A712A7000F051FF20465E
S315000002F0BDE8000BF0BD6FF00400BDE8000BF0BDDB
S31500000300F0B503AF2DE9000B4FF201051C469146EF
S3150000031088460646C4F20905184600BF95F900103E
S31500000320B1F1FF3F0EDC0138F8D128784FF47A712D
S3150000033040F0080028700A2000F02AFF95F9000016
S31500000340002822D4287840F002002870204600BFFA
S3150000035095F90810002906D40138F9D14FF0FF307D
S31500000360BDE8000BF0BD700001306874204600BF88
S31500000370297A89060ED4297AC9062DD40138F7D1EF
S315000003806FF00200BDE8000BF0BD6FF06300BDE842
S31500000390000BF0BDE878B9F1000F00F0F700E87047
S315000003A027D0A9F1010100228A4203D1E87840F062
S315000003B00800E870204600BF2B7A9B0602D401385D
S315000003C0FAD111E0A87C002308F8020001324A4560
S315000003D04FF00200E8D10EE0287A6FF0010300F03A
S315000003E0EF002872052006E06FF00300BDE8000B61
S315000003F0F0BD0023022029781C4641F0080129702F
S315000004004FF47A7100F0C4FE2046BDE8000BF0BD43
S31500000410D0B502AF44F20400C4F208000168072315
S3150000042021F40071016040F60350C4F2080001781F
S315000004304FF2000401F07F0101700178C4F2090453
S3150000044041F04001017040F60011C4F208010A684B
S3150000045022F480320A600A6863F31C620A600A6842
S3150000046042F040020A600A6842F010020A600A6816
S3150000047042F480320A604A6822F480324A604A684E
S3150000048063F31C624A604A6842F040024A604A6866
S3150000049042F010024A604A6842F480324A600178AB
S315000004A001F0BF010170017841F0800101702078F0
S315000004B04FF47A7100F07F002070207840F0400001
S315000004C02070012000F064FE20784FF47A7100F06D
S315000004D0BF0020701820607420740020A070E070A7
S315000004E0207160706072207840F080002070607823
S315000004F040F0080205206270BDE8D04000F048BE1A
S31500000500F0B503AF2DE9000F85B048F2035641F26E
S315000005104E62C4F2110600204921C0F2000200BF5B
S3150000052096F90130B3F1FF3FFADC01303170115C0E
S315000005301128F5D141F2C16941F289684CF6CD44E2
S31500000540002100204FF0010BC0F20009C0F20008A4
S31500000550CCF6CC440DF1080A009007F8291C05E0FA
S315000005600BF1010BBBF17F0F00F0B5805FFA8BF545
S315000005702846A7F12901012244F62063FFF73EFE33
S3150000058000286BD0632D01D0332DE9D141F2C4652B
S3150000059000214122C0F2000596F90130B3F1FF3F78
S315000005A0FADC0131327018F801200729F4D141F242
S315000005B0C4524FEA1B11C0F20002515C96F90120A9
S315000005C0B2F1FF3FFADC41F2C45231700BF00F0179
S315000005D0C0F20002515C00BF96F90120B2F1FF3F64
S315000005E0FADC31700021202296F90130B3F1FF3F89
S315000005F0FADC013132706A5C0829F5D141424FF0CC
S31500000600FF3000BFA1FB0423DA0802EB8203A1EB53
S31500000610430343F030030AEB000501300929114674
S315000006206B70EFD8013000BF01381AF8001000BF18
S3150000063096F90120B2F1FF3FFADC00283170F3D1C0
S3150000064000200D2196F90120B2F1FF3FFADC0130BE
S31500000650317019F800100228F4D181E741F2C47311
S3150000066000204621C0F2000396F90120B2F1FF3FB7
S31500000670FADC01303170195C0928F5D141F2C45118
S315000006804FEA1B10C0F20001085C00BF96F901108A
S31500000690B1F1FF3FFADC41F2C45130700BF00F00AC
S315000006A0C0F20001085C00BF96F90110B1F1FF3FEE
S315000006B0FADC307000200D2196F90120B2F1FF3FDF
S315000006C0FADC0130317019F800100228F4D10098D4
S315000006D00130009044E741F23572009D002053211D
S315000006E0C0F2000296F90130B3F1FF3FFADC0130A7
S315000006F03170115C1628F5D115B34FF0FF3000BFED
S31500000700A5FB0412D10801EB8102A5EB420242F0DF
S3150000071030020AEB00030130092D0D465A70EFD85E
S31500000720013000BF01381AF8001000BF96F9012009
S31500000730B2F1FF3FFADC00283170F3D107E000BFC9
S3150000074096F90100B0F1FF3FFADC3020307041F23B
S31500000750646200202021C0F2000200BF96F9013039
S31500000760B3F1FF3FFADC01303170115C0A28F5D194
S3150000077005B0BDE8000FF0BD40F22042C2F2000213
S315000007801278012A1CBF00207047F0B503AF2DE98F
S31500000790000786B048F2035541F2F966002220238D
S315000007A0C4F21105C0F2000695F90140B4F1FF3F0D
S315000007B0FADC01322B70B35C0F2AF5D1814600209A
S315000007C0884607F8250CA7F12501442001224CF2A2
S315000007D05033FFF713FD88B141F21E6200206621F7
S315000007E0C0F2000295F90130B3F1FF3FFADC0130A7
S315000007F02970115C0828F5D1002008E241F2F8566C
S3150000080000204F21C0F2000695F90120B2F1FF3F0A
S31500000810FADC01302970315C0428F5D132204FF41E
S315000008207A7100F0B5FC41F2B25200202021C0F2EC
S31500000830000200BF95F90130B3F1FF3FFADC013049
S315000008402970115C1128F5D1A7F1290448F28043DB
S31500000850C0F21E03442021460422FFF751FDC0B119
S3150000086041F21E6200206621C0F2000295F90130B5
S31500000870B3F1FF3FFADC01302970115C0828F5D18D
S31500000880FFF766FC32204FF47A7100F081FC0020FD
S31500000890BDE100204F21CC46C14600BF95F901209D
S315000008A0B2F1FF3FFADC01302970315C0428F5D142
S315000008B041F2BC7300202021C0F2000395F901200B
S315000008C0B2F1FF3FFADC01302970195C0728F5D137
S315000008D041F2C45A0021C0F2000A2023665C3209A4
S315000008E01AF8022095F90100B0F1FF3FFADC2A70F0
S315000008F006F00F001AF8002095F90100B0F1FF3F4D
S31500000900FADC2A7095F90100B0F1FF3FFADC0131FB
S3150000091004292B70E2D141F2C16600210D23C0F2F9
S31500000920000600BF95F90120B2F1FF3FFADC013164
S315000009302B70735C0229F5D117F8291C41F2FD547E
S3150000094000232026C0F2000495F90120B2F1FF3FF2
S31500000950FADC01332E70E65C0A2BF5D18B0900BF59
S3150000096095F90120B2F1FF3FFADC30222A701AF81D
S31500000970036000BF95F90120B2F1FF3FFADC022BBC
S315000009802E7012D0012B22D141F2CE7400232026E4
S31500000990C0F2000495F90100B0F1FF3FFADC013323
S315000009A02E70E65C2C2BF5D134E041F24C7200201F
S315000009B02021C0F2000200BF95F90130B3F1FF3FDC
S315000009C0FADC01302970115C2428F5D114E70023E4
S315000009D0202640290FD241F2CD64C0F2000400BFA8
S315000009E095F90100B0F1FF3FFADC01332E70E65CA9
S315000009F00F2BF5D10EE041F20864C0F2000400BFEF
S31500000A0095F90100B0F1FF3FFADC01332E70E65C88
S31500000A10152BF5D101F03F0017F8281C17F826EC26
S31500000A2041EA002617F8278C00EE106A9FED7A1A25
S31500000A30B8EE400A4FEA8E1080EE010A40EA9801AD
S31500000A4002EE101AB8EE422A82EE011A9FED732AC0
S31500000A5041F2757400222023C0F2000420EE020A3F
S31500000A6089ED000A9FED6E0A9FED6E2A21EE000ABF
S31500000A7030EE020AB4EE402AF1EE10FA9FED6A1A41
S31500000A8032FE000AB4EE410AF1EE10FA31FE000A17
S31500000A908CED000A95F90100B0F1FF3FFADC013256
S31500000AA02B70A35C0A2AF5D14CF6CD4CCCF6CC4C77
S31500000AB026B34FF0FF340DF10C0900BFA6FB0C0264
S31500000AC0D00800EB8002A6EB420242F0300209EBAE
S31500000AD004030134092E06465A70EFD8661C00BF7F
S31500000AE0013E19F8064000BF95F90100B0F1FF3F3D
S31500000AF0FADC002E2C70F3D107E000BF95F9010057
S31500000B00B0F1FF3FFADC3020287041F2097400236F
S31500000B102C26C0F2000400BF95F90100B0F1FF3F9A
S31500000B20FADC01332E70E65C0B2BF5D1F1B14FF0F8
S31500000B30FF3603ABA1FB0C02D00800EB8002A1EB51
S31500000B40420242F030029C190136092901466270C0
S31500000B50F0D8711C01395A5C95F90100B0F1FF3FDC
S31500000B60FADC00292A70F5D107E000BF95F90100EB
S31500000B70B0F1FF3FFADC3020287041F2807300218B
S31500000B802022C0F2000300BF95F90100B0F1FF3F3B
S31500000B90FADC01312A705A5C0429F5D14FEA1810A3
S31500000BA01AF8001095F90100B0F1FF3FFADC297040
S31500000BB008F00F001AF8001095F90100B0F1FF3F98
S31500000BC0FADC29704FEA1E101AF8001095F9010098
S31500000BD0B0F1FF3FFADC29700EF00F001AF80000A2
S31500000BE095F90110B1F1FF3FFADC41F2606228701D
S31500000BF000202921C0F2000295F90130B3F1FF3F30
S31500000C00FADC01302970115C0328F5D1012006B009
S31500000C10BDE80007F0BD00BF00FC7F460000C842EB
S31500000C2000002543000020C20000FA4280B56F464E
S31500000C3086B048F20356C4F21106FFF701FA41F2F4
S31500000C40DD6200200D21C0F2000200BF96F90130DE
S31500000C50B3F1FF3FFADC01303170115C1B28F5D18E
S31500000C6041F2857200204321C0F2000296F901305C
S31500000C70B3F1FF3FFADC01303170115C1528F5D174
S31500000C80FFF766FA32204FF47A7100F081FAFFF727
S31500000C90BFFB32204FF47A7100F07AFA41F2AB6270
S31500000CA000205321C0F2000296F90130B3F1FF3F54
S31500000CB0FADC01303170115C1528F5D1FFF720FC04
S31500000CC041F2C16200200D21C0F2000296F9013006
S31500000CD0B3F1FF3FFADC01303170115C0228F5D127
S31500000CE041F2157200203D21C0F2000296F9013052
S31500000CF0B3F1FF3FFADC01303170115C1F28F5D1EA
S31500000D0041F2916200202021C0F2000296F90130E2
S31500000D10B3F1FF3FFADC01303170115C1928F5D1CF
S31500000D2040F22040C2F20000012141F2D55201708A
S31500000D3000204821C0F2000296F90130B3F1FF3FCE
S31500000D40FADC01303170115C2228F5D141F29B7238
S31500000D5000200D21C0F2000296F90130B3F1FF3FE9
S31500000D60FADC01303170115C2028F5D19FEDAF8A95
S31500000D7041F271784CF6CD4A41F26F6BC0F2000831
S31500000D80CCF6CC4A0DF10C09C0F2000B06E000BF10
S31500000D904FF4FA604FF47A7100F0FAF902A801A94B
S31500000DA0FFF7EAFC002800F0338141F23C630020A3
S31500000DB07B21C0F200034FF0300E00BF96F90120F0
S31500000DC0B2F1FF3FFADC01303170195C1128F5D120
S31500000DD09DED020ABDEEC01AB8EEC12A30EE420AF7
S31500000DE020EE080ABDEEC00A10EE10CA11EE102A57
S31500000DF0BCF1000F604648BFCCF1000012B34FF0C3
S31500000E00FF3300BFA2FB0A45ED0805EB8504A2EB04
S31500000E10440444F0300409EB03010133092A2A464D
S31500000E204C70EFD85A1C00BF013A19F8023000BFC7
S31500000E3096F90110B1F1FF3FFADC002A3370F3D1C5
S31500000E4008E000BF96F90120B2F1FF3FFADC86F810
S31500000E5000E000BF96F90110B1F1FF3FFADC092866
S31500000E604FF02E0131700AD896F90110B1F1FF3F0B
S31500000E70FADCBCF1000F86F800E000F0B5804FF018
S31500000E80FF3100BFA0FB0A23DA0802EB8203A0EBC6
S31500000E90430343F0300309EB0105013109281046ED
S31500000EA06B70EFD841F22763481CC0F2000300BF05
S31500000EB0013819F8001000BF96F90120B2F1FF3F82
S31500000EC0FADC00283170F3D100202C2196F901209C
S31500000ED0B2F1FF3FFADC01303170195C1428F5D10C
S31500000EE09DED010ABDEEC01AB8EEC12A30EE420AE7
S31500000EF020EE080ABDEEC00A10EE10CA11EE102A46
S31500000F00BCF1000F604648BFCCF1000012B34FF0B1
S31500000F10FF3300BFA2FB0A54E50805EB8504A2EBEC
S31500000F20440444F0300409EB03010133092A2A463C
S31500000F304C70EFD85A1C00BF013A19F8023000BFB6
S31500000F4096F90110B1F1FF3FFADC002A3370F3D1B4
S31500000F5008E000BF96F90120B2F1FF3FFADC86F8FF
S31500000F6000E000BF96F90110B1F1FF3FFADC092855
S31500000F704FF02E01317009D896F90110B1F1FF3FFB
S31500000F80FADCBCF1000F86F800E039D04FF0FF31F3
S31500000F90A0FB0A23DA0802EB8203A0EB430343F02B
S31500000FA0300309EB01050131092810466B70EFD8B3
S31500000FB0481C00BF013819F8001000BF96F901203F
S31500000FC0B2F1FF3FFADC00283170F3D100207D2119
S31500000FD096F90120B2F1FF3FFADC0130317018F8C2
S31500000FE000100328F4D1D3E696F90100B0F1FF3FD3
S31500000FF0FADC41F2276386F800E0C0F2000363E7FB
S3150000100096F90100B0F1FF3FFADC86F800E0DDE773
S3150000101000207B2196F90120B2F1FF3FFADC013076
S3150000102031701BF800101928F4D1B1E60000C8424F
S3150000103080B56F46FFF7FAFD002080BD4EF2200016
S31500001040C4F20100817940F200420068C2F2000257
S3150000105052F82110C0F3026021FA00F040F26C4110
S31500001060C2F2000108607047F0B503AF4DF8048D79
S315000010704EF2FE3CC4F2010C4CF204124AF203504A
S31500001080C4F20102ACF8000001201080108800288C
S31500001090FCD147F200030120C4F2000322F8040C3D
S315000010A09860186040F2004342F6005E41F2002468
S315000010B04CF200284EF22001C2F20003C0F2311EAB
S315000010C0C0F27A044FF400450026C0F6EB38C4F2AD
S315000010D00101C3E900E4C3E90256C3E904688D7956
S315000010E00C6853F82550C4F3026440F26C4E25FA9E
S315000010F004F4C2F2000ECEF800408CF882008E7521
S31500001100087FC007FCD042F2117008810020887267
S31500001110087F8006FCD50320107641F22120C2F21A
S31500001120010008600520887188790A6853F8200054
S31500001130C2F30262D040CEF8000042F20C00C4F2C4
S315000011400000F12202700122F02300F8042C037043
S315000011504FF425400A7481F83220ACF800005DF89F
S31500001160048BF0BDD0B502AF43F22800C4F20800EC
S3150000117000240470012000F0E3F84EF2BB41C4F2F3
S31500001180010101200C70BDE8D04000F0ADB8D4D408
S3150000119040F26C42C2F20002126841F20023C0F231
S315000011A07A039A4201FB00F00FD340F6FF01C0F22A
S315000011B03D0111444DF68362C4F21B32A1FB0212BB
S315000011C0110DA0FB0101D9B11FE04CF6002348F632
S315000011D03811C3F69A33C0F24101B3FBF2F28842EA
S315000011E006D24FF47A714843B0FBF2F0800807E06C
S315000011F09200B0FBF2F0884207D24FF47A7148436E
S31500001200002808BF704700F005B84FF0FF3000F027
S3150000121001B8D4D401380028FCD17047F0B503AF2B
S315000012202DE9000B46F22018C4F20008B8F80000B9
S31500001230B8F8201040F2244501EA00091FFA89F6A1
S315000012400024C2F2000502E00134102C0AD026FA6E
S3150000125004F0C007F8D055F824100029F4D0E0B205
S315000012608847F1E7A8F81090BDE8000BF0BDD4D48C
S31500001270F0B503AF4DF804BD84B048F2480403202E
S31500001280C4F2000400F05CF841F6F001C0F200017F
S315000012906FF0FF000E8820604FF0FF300390029041
S315000012A0002E01901CBF6FF0010001904EF28032BB
S315000012B0002001A9CEF2000251F8203004EB80058F
S315000012C0AB6242F8203001300328F5D1032000F04C
S315000012D00BF8002E1EBF46F20030C4F20000066076
S315000012E004B05DF804BBF0BD0122EFF3108182F378
S315000012F0108840F26442C2F2000232F8103023B184
S3150000130032F81030013B22F8103032F8102012B1BA
S3150000131081F3108870474EF2FE3CC4F2010C41F690
S31500001320F202BCF80030C0F2000232F8100043F4BA
S31500001330254222EA0000ACF8000081F310887047CD
S3150000134080B56F460122EFF3108182F3108840F2D8
S315000013506442C2F2000232F810308BB94EF2FE3C03
S3150000136041F6F203C4F2010CC0F20003BCF800E03F
S3150000137033F8103043EA0E0343F42543ACF800304B
S3150000138032F81030013322F8103081F3108880BD16
S3150000139080B56F4600F006F8FFF74AFEFEE7D4D4A4
S315000013A000BE7047F0B503AF2DE9000B4EF60850AE
S315000013B0CEF200004FF47001C0F8801040F2000138
S315000013C0C0F200010160002000F0BAF8FFF74CFE01
S315000013D0012000F0B5F841F60C08C0F20008D8F874
S315000013E0006040F20000C2F2000080F30A8896B165
S315000013F0D8F804003546041D04E000BF013D04F1A1
S315000014000C0408D060790028F8D154E90101091AC2
S3150000141000F0BAF8F2E7D8F80890B9F1000F13D047
S31500001420D8F80C004D4600F1080403E0013D04F134
S31500001430100409D060790028F8D154E90202216825
S31500001440121A00F0A5F8F1E7FFF7F8FDFFF78AFE9C
S315000014500320FFF775FF40F60E510C20C4F2080179
S315000014604FF6FF72013821F8022FFBD10320FFF758
S315000014703BFF0320FFF764FF0420C4F20E000021A7
S31500001480016041608160C1600320FFF72DFF0220EB
S3150000149000F056F8A6B1D8F804004FF48075041D84
S315000014A004E000BF013E04F10C0409D06079B5EBFD
S315000014B0002FF7D154E90101091A00F065F8F1E7A8
S315000014C0B9F1000F16D0D8F80C004FF4807600F171
S315000014D0080404E0B9F1010904F110040AD06079A6
S315000014E0B6EB002FF6D154E902022168121A00F079
S315000014F04FF8EFE740F27444C2F20004204600F0D1
S3150000150023F8204600F036F841F64A1041F64A1113
S31500001510C0F20000C0F20001091A8C10012C06DB93
S31500001520051F00BF55F8040F8047013CFAD1FFF7AD
S315000015309FFE0020BDE8000BBDE8F04000F002B8B9
S315000015407047D4D47047D4D4D0B502AF0549044609
S31500001550054A00F01DF805480549204400F014F836
S31500001560D0BD00BF400000000000000000000000E9
S31500001570000000000249401A02490860704700BF97
S3150000158008000000700400200A46002100F00AB896
S31500001590D0B502AF00239A4203D0CC5CC4540133C9
S315000015A0F9E7D0BD00239A4208BF7047C154013302
S315000015B0F9E7202052656164696E67206461746191
S315000015C02E2E2E00303132333435363738394142FB
S315000015D0434445460048533330303120696E6974C0
S315000015E069616C697A656420737563636573736694
S315000015F0756C6C79210D0A004F4B0D0A00202053A3
S3150000160074617475733A200020287265736572766A
S3150000161065642F756E6B6E6F776E290D0A006661B5
S31500001620696C65640D0A002C2268756D69646974BD
S31500001630795F70657263656E74223A007B22746509
S315000016406D70657261747572655F63223A00493226
S315000016504320427573205363616E2E2E2E0D0A00B1
S31500001660290D0A0020646576696365730D0A007B9F
S31500001670226572726F72223A22726561645F6661D8
S31500001680696C6564227D0D0A0041646472203078BD
S315000016900020204853333030312073656E736F72EB
S315000016A020617420307834340D0A005363616E6E05
S315000016B0696E6720493243206275732E2E2E0D0AFD
S315000016C0000D0A00206572726F723A20002028769B
S315000016D0616C69642064617461290D0A000D0A2D2C
S315000016E02D2D205343493520554152542052454112
S315000016F04459202D2D2D0D0A00202054726967674C
S315000017006572696E672E2E2E002C2054656D705FF3
S315000017107261773D003D3D3D2048533330303120E6
S31500001720496E697469616C697A6174696F6E203D8E
S315000017303D3D0D0A005363616E20636F6D706C65ED
S3150000174074652E20466F756E643A20002028636FFC
S315000017506D6D616E64206D6F6465202D2073656EFE
S31500001760736F72206E6F74207265616479290D0A39
S31500001770007D0D0A00202048756D5F7261773D007F
S315000017802028307800436C656172696E67204932A3
S3150000179043206275732E2E2E0D0A000D0A3D3D3D27
S315000017A0205374617274696E6720446174612053BA
S315000017B0747265616D203D3D3D0D0A002020526129
S315000017C0773A2000466F756E643A203078002028FC
S315000017D07374616C652064617461202D2075736972
S315000017E06E672070726576696F7573206D656173BB
S315000017F07572656D656E74290D0A00D40000006867
S315000018000000006800000020000000200500000025
S315000018102418000009000000601800000200000003
S31500001820FC170000000000680000006800010008C6
S3150000183000000068000000680001000800000020A9
S315000018400000002000000003200400207404002093
S31500001850000000037404002074040020000000034C
S3150000186000000068000000680000006000010C082D
S315000018700000006800000068000000700001090810
S31500001880000000680000006800000008000102086F
S315000018900000006800000068400000000001010828
S315000018A000000020000000200000006000010C0382
S315000018B00000002000000020000000700001090365
S315000018C000000020000000200000000800000203C5
S315000018D0000000200000002040000000000001037E
S315000018E0740400207404002040000000000001037E
S315000018F000000100020008001000D4D40000000619
S31500001900362E302E30004275696C74207769746803
S315000019102052656E6573617320416476616E6365FE
S315000019206420466C657869626C6520536F667477CF
S31500001930617265205061636B6167652076657273BD
S30F00001940696F6E20362E302E30003F
S3090100A100FFFFFFFF58
S3090100A200FFFDFFFF59
S3090100A280F8F8FFFFE5
S7050000139156
